{
    "_format": "hh-sol-artifact-1",
    "contractName": "TicketNFT",
    "sourceName": "contracts/TicketNFT.sol",
    "abi": [
        {
            "inputs": [],
            "stateMutability": "nonpayable",
            "type": "constructor"
        },
        {
            "anonymous": false,
            "inputs": [
                {
                    "indexed": true,
                    "internalType": "address",
                    "name": "owner",
                    "type": "address"
                },
                {
                    "indexed": true,
                    "internalType": "address",
                    "name": "approved",
                    "type": "address"
                },
                {
                    "indexed": true,
                    "internalType": "uint256",
                    "name": "tokenId",
                    "type": "uint256"
                }
            ],
            "name": "Approval",
            "type": "event"
        },
        {
            "anonymous": false,
            "inputs": [
                {
                    "indexed": true,
                    "internalType": "address",
                    "name": "owner",
                    "type": "address"
                },
                {
                    "indexed": true,
                    "internalType": "address",
                    "name": "operator",
                    "type": "address"
                },
                {
                    "indexed": false,
                    "internalType": "bool",
                    "name": "approved",
                    "type": "bool"
                }
            ],
            "name": "ApprovalForAll",
            "type": "event"
        },
        {
            "anonymous": false,
            "inputs": [
                {
                    "indexed": true,
                    "internalType": "address",
                    "name": "from",
                    "type": "address"
                },
                {
                    "indexed": true,
                    "internalType": "address",
                    "name": "to",
                    "type": "address"
                },
                {
                    "indexed": true,
                    "internalType": "uint256",
                    "name": "tokenId",
                    "type": "uint256"
                }
            ],
            "name": "Transfer",
            "type": "event"
        },
        {
            "inputs": [
                {
                    "internalType": "address",
                    "name": "to",
                    "type": "address"
                },
                {
                    "internalType": "uint256",
                    "name": "tokenId",
                    "type": "uint256"
                }
            ],
            "name": "approve",
            "outputs": [],
            "stateMutability": "nonpayable",
            "type": "function"
        },
        {
            "inputs": [
                {
                    "internalType": "address",
                    "name": "owner",
                    "type": "address"
                }
            ],
            "name": "balanceOf",
            "outputs": [
                {
                    "internalType": "uint256",
                    "name": "",
                    "type": "uint256"
                }
            ],
            "stateMutability": "view",
            "type": "function"
        },
        {
            "inputs": [
                {
                    "internalType": "string",
                    "name": "data_url",
                    "type": "string"
                }
            ],
            "name": "createTicketNFT",
            "outputs": [],
            "stateMutability": "nonpayable",
            "type": "function"
        },
        {
            "inputs": [
                {
                    "internalType": "uint256",
                    "name": "tokenId",
                    "type": "uint256"
                }
            ],
            "name": "getApproved",
            "outputs": [
                {
                    "internalType": "address",
                    "name": "",
                    "type": "address"
                }
            ],
            "stateMutability": "view",
            "type": "function"
        },
        {
            "inputs": [
                {
                    "internalType": "address",
                    "name": "owner",
                    "type": "address"
                },
                {
                    "internalType": "address",
                    "name": "operator",
                    "type": "address"
                }
            ],
            "name": "isApprovedForAll",
            "outputs": [
                {
                    "internalType": "bool",
                    "name": "",
                    "type": "bool"
                }
            ],
            "stateMutability": "view",
            "type": "function"
        },
        {
            "inputs": [],
            "name": "name",
            "outputs": [
                {
                    "internalType": "string",
                    "name": "",
                    "type": "string"
                }
            ],
            "stateMutability": "view",
            "type": "function"
        },
        {
            "inputs": [
                {
                    "internalType": "uint256",
                    "name": "tokenId",
                    "type": "uint256"
                }
            ],
            "name": "ownerOf",
            "outputs": [
                {
                    "internalType": "address",
                    "name": "",
                    "type": "address"
                }
            ],
            "stateMutability": "view",
            "type": "function"
        },
        {
            "inputs": [
                {
                    "internalType": "address",
                    "name": "from",
                    "type": "address"
                },
                {
                    "internalType": "address",
                    "name": "to",
                    "type": "address"
                },
                {
                    "internalType": "uint256",
                    "name": "tokenId",
                    "type": "uint256"
                }
            ],
            "name": "safeTransferFrom",
            "outputs": [],
            "stateMutability": "nonpayable",
            "type": "function"
        },
        {
            "inputs": [
                {
                    "internalType": "address",
                    "name": "from",
                    "type": "address"
                },
                {
                    "internalType": "address",
                    "name": "to",
                    "type": "address"
                },
                {
                    "internalType": "uint256",
                    "name": "tokenId",
                    "type": "uint256"
                },
                {
                    "internalType": "bytes",
                    "name": "_data",
                    "type": "bytes"
                }
            ],
            "name": "safeTransferFrom",
            "outputs": [],
            "stateMutability": "nonpayable",
            "type": "function"
        },
        {
            "inputs": [
                {
                    "internalType": "address",
                    "name": "operator",
                    "type": "address"
                },
                {
                    "internalType": "bool",
                    "name": "approved",
                    "type": "bool"
                }
            ],
            "name": "setApprovalForAll",
            "outputs": [],
            "stateMutability": "nonpayable",
            "type": "function"
        },
        {
            "inputs": [
                {
                    "internalType": "bytes4",
                    "name": "interfaceId",
                    "type": "bytes4"
                }
            ],
            "name": "supportsInterface",
            "outputs": [
                {
                    "internalType": "bool",
                    "name": "",
                    "type": "bool"
                }
            ],
            "stateMutability": "view",
            "type": "function"
        },
        {
            "inputs": [],
            "name": "symbol",
            "outputs": [
                {
                    "internalType": "string",
                    "name": "",
                    "type": "string"
                }
            ],
            "stateMutability": "view",
            "type": "function"
        },
        {
            "inputs": [
                {
                    "internalType": "uint256",
                    "name": "tokenId",
                    "type": "uint256"
                }
            ],
            "name": "tokenURI",
            "outputs": [
                {
                    "internalType": "string",
                    "name": "",
                    "type": "string"
                }
            ],
            "stateMutability": "view",
            "type": "function"
        },
        {
            "inputs": [
                {
                    "internalType": "address",
                    "name": "from",
                    "type": "address"
                },
                {
                    "internalType": "address",
                    "name": "to",
                    "type": "address"
                },
                {
                    "internalType": "uint256",
                    "name": "tokenId",
                    "type": "uint256"
                }
            ],
            "name": "transferFrom",
            "outputs": [],
            "stateMutability": "nonpayable",
            "type": "function"
        }
    ],
    "bytecode": "0x60806040523480156200001157600080fd5b506040518060400160405280600881526020017f54756c69704e46540000000000000000000000000000000000000000000000008152506040518060400160405280600381526020017f544c500000000000000000000000000000000000000000000000000000000000815250816000908051906020019062000096929190620000b8565b508060019080519060200190620000af929190620000b8565b505050620001cd565b828054620000c69062000168565b90600052602060002090601f016020900481019282620000ea576000855562000136565b82601f106200010557805160ff191683800117855562000136565b8280016001018555821562000136579182015b828111156200013557825182559160200191906001019062000118565b5b50905062000145919062000149565b5090565b5b80821115620001645760008160009055506001016200014a565b5090565b600060028204905060018216806200018157607f821691505b602082108114156200019857620001976200019e565b5b50919050565b7f4e487b7100000000000000000000000000000000000000000000000000000000600052602260045260246000fd5b612bb880620001dd6000396000f3fe608060405234801561001057600080fd5b50600436106100ea5760003560e01c806370a082311161008c578063a22cb46511610066578063a22cb4651461025b578063b88d4fde14610277578063c87b56dd14610293578063e985e9c5146102c3576100ea565b806370a08231146101f15780638441411c1461022157806395d89b411461023d576100ea565b8063095ea7b3116100c8578063095ea7b31461016d57806323b872dd1461018957806342842e0e146101a55780636352211e146101c1576100ea565b806301ffc9a7146100ef57806306fdde031461011f578063081812fc1461013d575b600080fd5b61010960048036038101906101049190611c24565b6102f3565b604051610116919061206b565b60405180910390f35b6101276103d5565b6040516101349190612086565b60405180910390f35b61015760048036038101906101529190611cb7565b610467565b6040516101649190612004565b60405180910390f35b61018760048036038101906101829190611be8565b6104ec565b005b6101a3600480360381019061019e9190611ae2565b610604565b005b6101bf60048036038101906101ba9190611ae2565b610664565b005b6101db60048036038101906101d69190611cb7565b610684565b6040516101e89190612004565b60405180910390f35b61020b60048036038101906102069190611a7d565b610736565b60405161021891906122a8565b60405180910390f35b61023b60048036038101906102369190611c76565b6107ee565b005b61024561081e565b6040516102529190612086565b60405180910390f35b61027560048036038101906102709190611bac565b6108b0565b005b610291600480360381019061028c9190611b31565b6108c6565b005b6102ad60048036038101906102a89190611cb7565b610928565b6040516102ba9190612086565b60405180910390f35b6102dd60048036038101906102d89190611aa6565b610a7a565b6040516102ea919061206b565b60405180910390f35b60007f80ac58cd000000000000000000000000000000000000000000000000000000007bffffffffffffffffffffffffffffffffffffffffffffffffffffffff1916827bffffffffffffffffffffffffffffffffffffffffffffffffffffffff191614806103be57507f5b5e139f000000000000000000000000000000000000000000000000000000007bffffffffffffffffffffffffffffffffffffffffffffffffffffffff1916827bffffffffffffffffffffffffffffffffffffffffffffffffffffffff1916145b806103ce57506103cd82610b0e565b5b9050919050565b6060600080546103e4906124fe565b80601f0160208091040260200160405190810160405280929190818152602001828054610410906124fe565b801561045d5780601f106104325761010080835404028352916020019161045d565b820191906000526020600020905b81548152906001019060200180831161044057829003601f168201915b5050505050905090565b600061047282610b78565b6104b1576040517f08c379a00000000000000000000000000000000000000000000000000000000081526004016104a890612208565b60405180910390fd5b6004600083815260200190815260200160002060009054906101000a900473ffffffffffffffffffffffffffffffffffffffff169050919050565b60006104f782610684565b90508073ffffffffffffffffffffffffffffffffffffffff168373ffffffffffffffffffffffffffffffffffffffff161415610568576040517f08c379a000000000000000000000000000000000000000000000000000000000815260040161055f90612268565b60405180910390fd5b8073ffffffffffffffffffffffffffffffffffffffff16610587610be4565b73ffffffffffffffffffffffffffffffffffffffff1614806105b657506105b5816105b0610be4565b610a7a565b5b6105f5576040517f08c379a00000000000000000000000000000000000000000000000000000000081526004016105ec90612148565b60405180910390fd5b6105ff8383610bec565b505050565b61061561060f610be4565b82610ca5565b610654576040517f08c379a000000000000000000000000000000000000000000000000000000000815260040161064b90612288565b60405180910390fd5b61065f838383610d83565b505050565b61067f838383604051806020016040528060008152506108c6565b505050565b6000806002600084815260200190815260200160002060009054906101000a900473ffffffffffffffffffffffffffffffffffffffff169050600073ffffffffffffffffffffffffffffffffffffffff168173ffffffffffffffffffffffffffffffffffffffff16141561072d576040517f08c379a000000000000000000000000000000000000000000000000000000000815260040161072490612188565b60405180910390fd5b80915050919050565b60008073ffffffffffffffffffffffffffffffffffffffff168273ffffffffffffffffffffffffffffffffffffffff1614156107a7576040517f08c379a000000000000000000000000000000000000000000000000000000000815260040161079e90612168565b60405180910390fd5b600360008373ffffffffffffffffffffffffffffffffffffffff1673ffffffffffffffffffffffffffffffffffffffff168152602001908152602001600020549050919050565b60006107fa6007610fdf565b90506108063382610fed565b610810818361100b565b61081a600761107f565b5050565b60606001805461082d906124fe565b80601f0160208091040260200160405190810160405280929190818152602001828054610859906124fe565b80156108a65780601f1061087b576101008083540402835291602001916108a6565b820191906000526020600020905b81548152906001019060200180831161088957829003601f168201915b5050505050905090565b6108c26108bb610be4565b8383611095565b5050565b6108d76108d1610be4565b83610ca5565b610916576040517f08c379a000000000000000000000000000000000000000000000000000000000815260040161090d90612288565b60405180910390fd5b61092284848484611202565b50505050565b606061093382610b78565b610972576040517f08c379a0000000000000000000000000000000000000000000000000000000008152600401610969906121e8565b60405180910390fd5b6000600660008481526020019081526020016000208054610992906124fe565b80601f01602080910402602001604051908101604052809291908181526020018280546109be906124fe565b8015610a0b5780601f106109e057610100808354040283529160200191610a0b565b820191906000526020600020905b8154815290600101906020018083116109ee57829003601f168201915b505050505090506000610a1c61125e565b9050600081511415610a32578192505050610a75565b600082511115610a67578082604051602001610a4f929190611fe0565b60405160208183030381529060405292505050610a75565b610a7084611275565b925050505b919050565b6000600560008473ffffffffffffffffffffffffffffffffffffffff1673ffffffffffffffffffffffffffffffffffffffff16815260200190815260200160002060008373ffffffffffffffffffffffffffffffffffffffff1673ffffffffffffffffffffffffffffffffffffffff16815260200190815260200160002060009054906101000a900460ff16905092915050565b60007f01ffc9a7000000000000000000000000000000000000000000000000000000007bffffffffffffffffffffffffffffffffffffffffffffffffffffffff1916827bffffffffffffffffffffffffffffffffffffffffffffffffffffffff1916149050919050565b60008073ffffffffffffffffffffffffffffffffffffffff166002600084815260200190815260200160002060009054906101000a900473ffffffffffffffffffffffffffffffffffffffff1673ffffffffffffffffffffffffffffffffffffffff1614159050919050565b600033905090565b816004600083815260200190815260200160002060006101000a81548173ffffffffffffffffffffffffffffffffffffffff021916908373ffffffffffffffffffffffffffffffffffffffff160217905550808273ffffffffffffffffffffffffffffffffffffffff16610c5f83610684565b73ffffffffffffffffffffffffffffffffffffffff167f8c5be1e5ebec7d5bd14f71427d1e84f3dd0314c0f7b2291e5b200ac8c7c3b92560405160405180910390a45050565b6000610cb082610b78565b610cef576040517f08c379a0000000000000000000000000000000000000000000000000000000008152600401610ce690612128565b60405180910390fd5b6000610cfa83610684565b90508073ffffffffffffffffffffffffffffffffffffffff168473ffffffffffffffffffffffffffffffffffffffff161480610d6957508373ffffffffffffffffffffffffffffffffffffffff16610d5184610467565b73ffffffffffffffffffffffffffffffffffffffff16145b80610d7a5750610d798185610a7a565b5b91505092915050565b8273ffffffffffffffffffffffffffffffffffffffff16610da382610684565b73ffffffffffffffffffffffffffffffffffffffff1614610df9576040517f08c379a0000000000000000000000000000000000000000000000000000000008152600401610df090612228565b60405180910390fd5b600073ffffffffffffffffffffffffffffffffffffffff168273ffffffffffffffffffffffffffffffffffffffff161415610e69576040517f08c379a0000000000000000000000000000000000000000000000000000000008152600401610e60906120e8565b60405180910390fd5b610e7483838361131c565b610e7f600082610bec565b6001600360008573ffffffffffffffffffffffffffffffffffffffff1673ffffffffffffffffffffffffffffffffffffffff1681526020019081526020016000206000828254610ecf9190612414565b925050819055506001600360008473ffffffffffffffffffffffffffffffffffffffff1673ffffffffffffffffffffffffffffffffffffffff1681526020019081526020016000206000828254610f26919061238d565b92505081905550816002600083815260200190815260200160002060006101000a81548173ffffffffffffffffffffffffffffffffffffffff021916908373ffffffffffffffffffffffffffffffffffffffff160217905550808273ffffffffffffffffffffffffffffffffffffffff168473ffffffffffffffffffffffffffffffffffffffff167fddf252ad1be2c89b69c2b068fc378daa952ba7f163c4a11628f55a4df523b3ef60405160405180910390a4505050565b600081600001549050919050565b611007828260405180602001604052806000815250611321565b5050565b61101482610b78565b611053576040517f08c379a000000000000000000000000000000000000000000000000000000000815260040161104a906121a8565b60405180910390fd5b8060066000848152602001908152602001600020908051906020019061107a9291906118a1565b505050565b6001816000016000828254019250508190555050565b8173ffffffffffffffffffffffffffffffffffffffff168373ffffffffffffffffffffffffffffffffffffffff161415611104576040517f08c379a00000000000000000000000000000000000000000000000000000000081526004016110fb90612108565b60405180910390fd5b80600560008573ffffffffffffffffffffffffffffffffffffffff1673ffffffffffffffffffffffffffffffffffffffff16815260200190815260200160002060008473ffffffffffffffffffffffffffffffffffffffff1673ffffffffffffffffffffffffffffffffffffffff16815260200190815260200160002060006101000a81548160ff0219169083151502179055508173ffffffffffffffffffffffffffffffffffffffff168373ffffffffffffffffffffffffffffffffffffffff167f17307eab39ab6107e8899845ad3d59bd9653f200f220920489ca2b5937696c31836040516111f5919061206b565b60405180910390a3505050565b61120d848484610d83565b6112198484848461137c565b611258576040517f08c379a000000000000000000000000000000000000000000000000000000000815260040161124f906120a8565b60405180910390fd5b50505050565b606060405180602001604052806000815250905090565b606061128082610b78565b6112bf576040517f08c379a00000000000000000000000000000000000000000000000000000000081526004016112b690612248565b60405180910390fd5b60006112c961125e565b905060008151116112e95760405180602001604052806000815250611314565b806112f384611513565b604051602001611304929190611fe0565b6040516020818303038152906040525b915050919050565b505050565b61132b83836116c0565b611338600084848461137c565b611377576040517f08c379a000000000000000000000000000000000000000000000000000000000815260040161136e906120a8565b60405180910390fd5b505050565b600061139d8473ffffffffffffffffffffffffffffffffffffffff1661188e565b15611506578373ffffffffffffffffffffffffffffffffffffffff1663150b7a026113c6610be4565b8786866040518563ffffffff1660e01b81526004016113e8949392919061201f565b602060405180830381600087803b15801561140257600080fd5b505af192505050801561143357506040513d601f19601f820116820180604052508101906114309190611c4d565b60015b6114b6573d8060008114611463576040519150601f19603f3d011682016040523d82523d6000602084013e611468565b606091505b506000815114156114ae576040517f08c379a00000000000000000000000000000000000000000000000000000000081526004016114a5906120a8565b60405180910390fd5b805181602001fd5b63150b7a0260e01b7bffffffffffffffffffffffffffffffffffffffffffffffffffffffff1916817bffffffffffffffffffffffffffffffffffffffffffffffffffffffff19161491505061150b565b600190505b949350505050565b6060600082141561155b576040518060400160405280600181526020017f300000000000000000000000000000000000000000000000000000000000000081525090506116bb565b600082905060005b6000821461158d57808061157690612561565b915050600a8261158691906123e3565b9150611563565b60008167ffffffffffffffff8111156115cf577f4e487b7100000000000000000000000000000000000000000000000000000000600052604160045260246000fd5b6040519080825280601f01601f1916602001820160405280156116015781602001600182028036833780820191505090505b5090505b600085146116b45760018261161a9190612414565b9150600a8561162991906125aa565b6030611635919061238d565b60f81b818381518110611671577f4e487b7100000000000000000000000000000000000000000000000000000000600052603260045260246000fd5b60200101907effffffffffffffffffffffffffffffffffffffffffffffffffffffffffffff1916908160001a905350600a856116ad91906123e3565b9450611605565b8093505050505b919050565b600073ffffffffffffffffffffffffffffffffffffffff168273ffffffffffffffffffffffffffffffffffffffff161415611730576040517f08c379a0000000000000000000000000000000000000000000000000000000008152600401611727906121c8565b60405180910390fd5b61173981610b78565b15611779576040517f08c379a0000000000000000000000000000000000000000000000000000000008152600401611770906120c8565b60405180910390fd5b6117856000838361131c565b6001600360008473ffffffffffffffffffffffffffffffffffffffff1673ffffffffffffffffffffffffffffffffffffffff16815260200190815260200160002060008282546117d5919061238d565b92505081905550816002600083815260200190815260200160002060006101000a81548173ffffffffffffffffffffffffffffffffffffffff021916908373ffffffffffffffffffffffffffffffffffffffff160217905550808273ffffffffffffffffffffffffffffffffffffffff16600073ffffffffffffffffffffffffffffffffffffffff167fddf252ad1be2c89b69c2b068fc378daa952ba7f163c4a11628f55a4df523b3ef60405160405180910390a45050565b600080823b905060008111915050919050565b8280546118ad906124fe565b90600052602060002090601f0160209004810192826118cf5760008555611916565b82601f106118e857805160ff1916838001178555611916565b82800160010185558215611916579182015b828111156119155782518255916020019190600101906118fa565b5b5090506119239190611927565b5090565b5b80821115611940576000816000905550600101611928565b5090565b6000611957611952846122e8565b6122c3565b90508281526020810184848401111561196f57600080fd5b61197a8482856124bc565b509392505050565b600061199561199084612319565b6122c3565b9050828152602081018484840111156119ad57600080fd5b6119b88482856124bc565b509392505050565b6000813590506119cf81612b26565b92915050565b6000813590506119e481612b3d565b92915050565b6000813590506119f981612b54565b92915050565b600081519050611a0e81612b54565b92915050565b600082601f830112611a2557600080fd5b8135611a35848260208601611944565b91505092915050565b600082601f830112611a4f57600080fd5b8135611a5f848260208601611982565b91505092915050565b600081359050611a7781612b6b565b92915050565b600060208284031215611a8f57600080fd5b6000611a9d848285016119c0565b91505092915050565b60008060408385031215611ab957600080fd5b6000611ac7858286016119c0565b9250506020611ad8858286016119c0565b9150509250929050565b600080600060608486031215611af757600080fd5b6000611b05868287016119c0565b9350506020611b16868287016119c0565b9250506040611b2786828701611a68565b9150509250925092565b60008060008060808587031215611b4757600080fd5b6000611b55878288016119c0565b9450506020611b66878288016119c0565b9350506040611b7787828801611a68565b925050606085013567ffffffffffffffff811115611b9457600080fd5b611ba087828801611a14565b91505092959194509250565b60008060408385031215611bbf57600080fd5b6000611bcd858286016119c0565b9250506020611bde858286016119d5565b9150509250929050565b60008060408385031215611bfb57600080fd5b6000611c09858286016119c0565b9250506020611c1a85828601611a68565b9150509250929050565b600060208284031215611c3657600080fd5b6000611c44848285016119ea565b91505092915050565b600060208284031215611c5f57600080fd5b6000611c6d848285016119ff565b91505092915050565b600060208284031215611c8857600080fd5b600082013567ffffffffffffffff811115611ca257600080fd5b611cae84828501611a3e565b91505092915050565b600060208284031215611cc957600080fd5b6000611cd784828501611a68565b91505092915050565b611ce981612448565b82525050565b611cf88161245a565b82525050565b6000611d098261234a565b611d138185612360565b9350611d238185602086016124cb565b611d2c81612697565b840191505092915050565b6000611d4282612355565b611d4c8185612371565b9350611d5c8185602086016124cb565b611d6581612697565b840191505092915050565b6000611d7b82612355565b611d858185612382565b9350611d958185602086016124cb565b80840191505092915050565b6000611dae603283612371565b9150611db9826126a8565b604082019050919050565b6000611dd1601c83612371565b9150611ddc826126f7565b602082019050919050565b6000611df4602483612371565b9150611dff82612720565b604082019050919050565b6000611e17601983612371565b9150611e228261276f565b602082019050919050565b6000611e3a602c83612371565b9150611e4582612798565b604082019050919050565b6000611e5d603883612371565b9150611e68826127e7565b604082019050919050565b6000611e80602a83612371565b9150611e8b82612836565b604082019050919050565b6000611ea3602983612371565b9150611eae82612885565b604082019050919050565b6000611ec6602e83612371565b9150611ed1826128d4565b604082019050919050565b6000611ee9602083612371565b9150611ef482612923565b602082019050919050565b6000611f0c603183612371565b9150611f178261294c565b604082019050919050565b6000611f2f602c83612371565b9150611f3a8261299b565b604082019050919050565b6000611f52602983612371565b9150611f5d826129ea565b604082019050919050565b6000611f75602f83612371565b9150611f8082612a39565b604082019050919050565b6000611f98602183612371565b9150611fa382612a88565b604082019050919050565b6000611fbb603183612371565b9150611fc682612ad7565b604082019050919050565b611fda816124b2565b82525050565b6000611fec8285611d70565b9150611ff88284611d70565b91508190509392505050565b60006020820190506120196000830184611ce0565b92915050565b60006080820190506120346000830187611ce0565b6120416020830186611ce0565b61204e6040830185611fd1565b81810360608301526120608184611cfe565b905095945050505050565b60006020820190506120806000830184611cef565b92915050565b600060208201905081810360008301526120a08184611d37565b905092915050565b600060208201905081810360008301526120c181611da1565b9050919050565b600060208201905081810360008301526120e181611dc4565b9050919050565b6000602082019050818103600083015261210181611de7565b9050919050565b6000602082019050818103600083015261212181611e0a565b9050919050565b6000602082019050818103600083015261214181611e2d565b9050919050565b6000602082019050818103600083015261216181611e50565b9050919050565b6000602082019050818103600083015261218181611e73565b9050919050565b600060208201905081810360008301526121a181611e96565b9050919050565b600060208201905081810360008301526121c181611eb9565b9050919050565b600060208201905081810360008301526121e181611edc565b9050919050565b6000602082019050818103600083015261220181611eff565b9050919050565b6000602082019050818103600083015261222181611f22565b9050919050565b6000602082019050818103600083015261224181611f45565b9050919050565b6000602082019050818103600083015261226181611f68565b9050919050565b6000602082019050818103600083015261228181611f8b565b9050919050565b600060208201905081810360008301526122a181611fae565b9050919050565b60006020820190506122bd6000830184611fd1565b92915050565b60006122cd6122de565b90506122d98282612530565b919050565b6000604051905090565b600067ffffffffffffffff82111561230357612302612668565b5b61230c82612697565b9050602081019050919050565b600067ffffffffffffffff82111561233457612333612668565b5b61233d82612697565b9050602081019050919050565b600081519050919050565b600081519050919050565b600082825260208201905092915050565b600082825260208201905092915050565b600081905092915050565b6000612398826124b2565b91506123a3836124b2565b9250827fffffffffffffffffffffffffffffffffffffffffffffffffffffffffffffffff038211156123d8576123d76125db565b5b828201905092915050565b60006123ee826124b2565b91506123f9836124b2565b9250826124095761240861260a565b5b828204905092915050565b600061241f826124b2565b915061242a836124b2565b92508282101561243d5761243c6125db565b5b828203905092915050565b600061245382612492565b9050919050565b60008115159050919050565b60007fffffffff0000000000000000000000000000000000000000000000000000000082169050919050565b600073ffffffffffffffffffffffffffffffffffffffff82169050919050565b6000819050919050565b82818337600083830152505050565b60005b838110156124e95780820151818401526020810190506124ce565b838111156124f8576000848401525b50505050565b6000600282049050600182168061251657607f821691505b6020821081141561252a57612529612639565b5b50919050565b61253982612697565b810181811067ffffffffffffffff8211171561255857612557612668565b5b80604052505050565b600061256c826124b2565b91507fffffffffffffffffffffffffffffffffffffffffffffffffffffffffffffffff82141561259f5761259e6125db565b5b600182019050919050565b60006125b5826124b2565b91506125c0836124b2565b9250826125d0576125cf61260a565b5b828206905092915050565b7f4e487b7100000000000000000000000000000000000000000000000000000000600052601160045260246000fd5b7f4e487b7100000000000000000000000000000000000000000000000000000000600052601260045260246000fd5b7f4e487b7100000000000000000000000000000000000000000000000000000000600052602260045260246000fd5b7f4e487b7100000000000000000000000000000000000000000000000000000000600052604160045260246000fd5b6000601f19601f8301169050919050565b7f4552433732313a207472616e7366657220746f206e6f6e20455243373231526560008201527f63656976657220696d706c656d656e7465720000000000000000000000000000602082015250565b7f4552433732313a20746f6b656e20616c7265616479206d696e74656400000000600082015250565b7f4552433732313a207472616e7366657220746f20746865207a65726f2061646460008201527f7265737300000000000000000000000000000000000000000000000000000000602082015250565b7f4552433732313a20617070726f766520746f2063616c6c657200000000000000600082015250565b7f4552433732313a206f70657261746f7220717565727920666f72206e6f6e657860008201527f697374656e7420746f6b656e0000000000000000000000000000000000000000602082015250565b7f4552433732313a20617070726f76652063616c6c6572206973206e6f74206f7760008201527f6e6572206e6f7220617070726f76656420666f7220616c6c0000000000000000602082015250565b7f4552433732313a2062616c616e636520717565727920666f7220746865207a6560008201527f726f206164647265737300000000000000000000000000000000000000000000602082015250565b7f4552433732313a206f776e657220717565727920666f72206e6f6e657869737460008201527f656e7420746f6b656e0000000000000000000000000000000000000000000000602082015250565b7f45524337323155524953746f726167653a2055524920736574206f66206e6f6e60008201527f6578697374656e7420746f6b656e000000000000000000000000000000000000602082015250565b7f4552433732313a206d696e7420746f20746865207a65726f2061646472657373600082015250565b7f45524337323155524953746f726167653a2055524920717565727920666f722060008201527f6e6f6e6578697374656e7420746f6b656e000000000000000000000000000000602082015250565b7f4552433732313a20617070726f76656420717565727920666f72206e6f6e657860008201527f697374656e7420746f6b656e0000000000000000000000000000000000000000602082015250565b7f4552433732313a207472616e73666572206f6620746f6b656e2074686174206960008201527f73206e6f74206f776e0000000000000000000000000000000000000000000000602082015250565b7f4552433732314d657461646174613a2055524920717565727920666f72206e6f60008201527f6e6578697374656e7420746f6b656e0000000000000000000000000000000000602082015250565b7f4552433732313a20617070726f76616c20746f2063757272656e74206f776e6560008201527f7200000000000000000000000000000000000000000000000000000000000000602082015250565b7f4552433732313a207472616e736665722063616c6c6572206973206e6f74206f60008201527f776e6572206e6f7220617070726f766564000000000000000000000000000000602082015250565b612b2f81612448565b8114612b3a57600080fd5b50565b612b468161245a565b8114612b5157600080fd5b50565b612b5d81612466565b8114612b6857600080fd5b50565b612b74816124b2565b8114612b7f57600080fd5b5056fea2646970667358221220bc31a81919f4ca5317cfd2209595f82d8e06722c034408f188b99e7a1c710a1764736f6c63430008040033",
    "linkReferences": {},
    "deployedLinkReferences": {}
}